{
  "address": "0xFBfCC27D175F1cAAE97c8663CAbb4ddF8E424E21",
  "abi": [
    {
      "inputs": [
        {
          "internalType": "address",
          "name": "_brevisRequest",
          "type": "address"
        },
        {
          "internalType": "bytes32",
          "name": "_vkHash",
          "type": "bytes32"
        },
        {
          "internalType": "address",
          "name": "_airdoppingToken",
          "type": "address"
        }
      ],
      "stateMutability": "nonpayable",
      "type": "constructor"
    },
    {
      "anonymous": false,
      "inputs": [
        {
          "indexed": false,
          "internalType": "address",
          "name": "recipient",
          "type": "address"
        },
        {
          "indexed": false,
          "internalType": "address",
          "name": "token",
          "type": "address"
        },
        {
          "indexed": false,
          "internalType": "uint256",
          "name": "amount",
          "type": "uint256"
        }
      ],
      "name": "Airdropped",
      "type": "event"
    },
    {
      "inputs": [],
      "name": "airdoppingToken",
      "outputs": [
        {
          "internalType": "address",
          "name": "",
          "type": "address"
        }
      ],
      "stateMutability": "view",
      "type": "function"
    },
    {
      "inputs": [
        {
          "internalType": "bytes32[]",
          "name": "_appVkHashes",
          "type": "bytes32[]"
        },
        {
          "internalType": "bytes[]",
          "name": "_appCircuitOutputs",
          "type": "bytes[]"
        }
      ],
      "name": "brevisBatchCallback",
      "outputs": [],
      "stateMutability": "nonpayable",
      "type": "function"
    },
    {
      "inputs": [
        {
          "internalType": "bytes32",
          "name": "_appVkHash",
          "type": "bytes32"
        },
        {
          "internalType": "bytes",
          "name": "_appCircuitOutput",
          "type": "bytes"
        }
      ],
      "name": "brevisCallback",
      "outputs": [],
      "stateMutability": "nonpayable",
      "type": "function"
    },
    {
      "inputs": [],
      "name": "brevisRequest",
      "outputs": [
        {
          "internalType": "address",
          "name": "",
          "type": "address"
        }
      ],
      "stateMutability": "view",
      "type": "function"
    },
    {
      "inputs": [
        {
          "internalType": "address",
          "name": "",
          "type": "address"
        }
      ],
      "name": "issuedTokens",
      "outputs": [
        {
          "internalType": "uint256",
          "name": "",
          "type": "uint256"
        }
      ],
      "stateMutability": "view",
      "type": "function"
    },
    {
      "inputs": [],
      "name": "vkHash",
      "outputs": [
        {
          "internalType": "bytes32",
          "name": "",
          "type": "bytes32"
        }
      ],
      "stateMutability": "view",
      "type": "function"
    }
  ],
  "transactionHash": "0x35cd226b1ee351a907042f3b043e8baf56039bd95a5eca6183eafa373d7a477e",
  "args": [
    "0xa082F86d9d1660C29cf3f962A31d7D20E367154F",
    "0x0000000000000000000000000000000000000000000000000000000000000000",
    "0x65f57e2d8247f4F4Adb4E0beF35801c01eba9dac"
  ],
  "numDeployments": 1,
  "solcInputHash": "3fa7798f0fff3c3e779334f30dce1255",
  "bytecode": "0x60c0346100ae57601f61072338819003918201601f19168301916001600160401b038311848410176100b3578084926060946040528339810103126100ae57610047816100c9565b906100596040602083015192016100c9565b600080546001600160a01b0319166001600160a01b039094169390931790925560805260a05260405161064590816100de82396080518181816101720152610332015260a051818181610136015261043e0152f35b600080fd5b634e487b7160e01b600052604160045260246000fd5b51906001600160a01b03821682036100ae5756fe6080604081815260048036101561001557600080fd5b600092833560e01c90816338931a3114610288575080633bca02fc146101955780634fe840f51461015a57806376bf34041461011657806379d6b6a2146100a05763a0b498a41461006557600080fd5b3461009c57602036600319011261009c57356001600160a01b03811680910361009c57828291602094526001845220549051908152f35b8280fd5b50903461009c57366003190112610112576024359067ffffffffffffffff9081831161010e573660238401121561010e578281013591821161010e57366024838501011161010e57602461010b936101036001600160a01b0387541633146102e1565b01903561032d565b80f35b8380fd5b5080fd5b505034610112578160031936011261011257602090516001600160a01b037f0000000000000000000000000000000000000000000000000000000000000000168152f35b505034610112578160031936011261011257602090517f00000000000000000000000000000000000000000000000000000000000000008152f35b50903461009c573660031901126101125767ffffffffffffffff90803582811161010e576101c690369083016102ab565b9190926024938435828111610284576101e290369085016102ab565b906101f86001600160a01b0389541633146102e1565b875b868110610205578880f35b8060051b838210156102725780830135601e198436030181121561026e57830180359087821161026a57602001813603811361026a576102479287013561032d565b6000198114610258576001016101fa565b634e487b7160e01b8952601186528789fd5b8b80fd5b8a80fd5b634e487b7160e01b8a5260328752888afd5b8680fd5b8490346101125781600319360112610112576001600160a01b0360209254168152f35b9181601f840112156102dc5782359167ffffffffffffffff83116102dc576020808501948460051b0101116102dc57565b600080fd5b156102e857565b60405162461bcd60e51b815260206004820152600e60248201527f696e76616c69642063616c6c65720000000000000000000000000000000000006044820152606490fd5b9190917f0000000000000000000000000000000000000000000000000000000000000000036105ca57806014116102dc57813560601c90806033116102dc5760148301358060081c91806052116102dc576071116102dc57600090600a83101561057b577f01fffffffffffffffffffffffffffffffffffffffffffffffffffffffffffffe915060071c16908082046002149015171561053a575b69021e19e0c9bab2400000603384013560081c101561056257600a810180911161053a5760526301312d0091935b013560081c10610550575b60058202918083046005148115171561053a57674563918244f400000291808304670de0b6b3a7640000149015171561053a576001600160a01b037f00000000000000000000000000000000000000000000000000000000000000001660405163a9059cbb60e01b81528260048201528360248201526020816044816000865af1801561052e576104c7575b50907f6338f69390e35a535a8a45841594668201ebcd1a8d9561f38ae0e589140233bf9260609260405192835260208301526040820152a1565b60209291923d8111610527575b601f8101601f1916820167ffffffffffffffff811183821017610511576020918391604052810103126102dc5751801515036102dc57903861048d565b634e487b7160e01b600052604160045260246000fd5b503d6104d4565b6040513d6000823e3d90fd5b634e487b7160e01b600052601160045260246000fd5b906064810180911161053a5790610401565b6032810180911161053a5760526301312d0091936103f6565b7f03fffffffffffffffffffffffffffffffffffffffffffffffffffffffffffffc9060061c1691808304600414901517156105b657506103c8565b634e487b7160e01b81526011600452602490fd5b60405162461bcd60e51b815260206004820152600a60248201527f696e76616c696420766b000000000000000000000000000000000000000000006044820152606490fdfea2646970667358221220c4eb64b18b61fc2d0ea39e3e605b675d25dcd8558a87c5005f85cc074e8a1c8a64736f6c63430008140033",
  "devdoc": {
    "kind": "dev",
    "methods": {},
    "version": 1
  },
  "userdoc": {
    "kind": "user",
    "methods": {},
    "version": 1
  },
  "storageLayout": {
    "storage": [
      {
        "astId": 307,
        "contract": "contracts/PermissionlessAirdrop.sol:PermissionlessAirdrop",
        "label": "brevisRequest",
        "offset": 0,
        "slot": "0",
        "type": "t_address"
      },
      {
        "astId": 91,
        "contract": "contracts/PermissionlessAirdrop.sol:PermissionlessAirdrop",
        "label": "issuedTokens",
        "offset": 0,
        "slot": "1",
        "type": "t_mapping(t_address,t_uint256)"
      }
    ],
    "types": {
      "t_address": {
        "encoding": "inplace",
        "label": "address",
        "numberOfBytes": "20"
      },
      "t_mapping(t_address,t_uint256)": {
        "encoding": "mapping",
        "key": "t_address",
        "label": "mapping(address => uint256)",
        "numberOfBytes": "32",
        "value": "t_uint256"
      },
      "t_uint256": {
        "encoding": "inplace",
        "label": "uint256",
        "numberOfBytes": "32"
      }
    }
  }
}